:0C08D7000A08BF86DBCFEBEDFD87FFEFCA
:10088C00E4F512F51375A00F74082513F8E6F5803E
:10089C007F327E001208B70513E51370020512D3E0
:0A08AC009409E5126480948040DB9B
:0108B600221F
:1008B700E4FDFCD3ED9FEC9E5015E4FBFA0BBB0067
:0F08C700010ABA04F8BBFCF50DBD00010C80E47A
:0108D60022FF
:03000000020800F3
:0C080000787FE4F6D8FD758113020847EC
:10080C0002088CE493A3F8E493A34003F68001F26E
:10081C0008DFF48029E493A3F85407240CC8C333ED
:10082C00C4540F4420C8834004F456800146F6DFBC
:10083C00E4800B01020408102040809008D7E47E6D
:10084C00019360BCA3FF543F30E509541FFEE493B1
:10085C00A360010ECF54C025E060A840B8E493A378
:10086C00FAE493A3F8E493A3C8C582C8CAC583CAA3
:10087C00F0A3C8C582C8CAC583CADFE9DEE780BE5B
:0108E3000014
:00000001FF
